{
  "contractName": "Auth",
  "abi": [
    {
      "inputs": [],
      "stateMutability": "nonpayable",
      "type": "constructor"
    },
    {
      "inputs": [
        {
          "internalType": "address",
          "name": "user",
          "type": "address"
        }
      ],
      "name": "isAdministrator",
      "outputs": [
        {
          "internalType": "bool",
          "name": "",
          "type": "bool"
        }
      ],
      "stateMutability": "view",
      "type": "function"
    }
  ],
  "bytecode": "0x608060405234801561001057600080fd5b50336000806101000a81548173ffffffffffffffffffffffffffffffffffffffff021916908373ffffffffffffffffffffffffffffffffffffffff1602179055506101c9806100606000396000f3fe608060405234801561001057600080fd5b5060043610610048576000357c0100000000000000000000000000000000000000000000000000000000900480630a2eb3011461004d575b600080fd5b610067600480360381019061006291906100eb565b61007d565b6040516100749190610123565b60405180910390f35b60008060009054906101000a900473ffffffffffffffffffffffffffffffffffffffff1673ffffffffffffffffffffffffffffffffffffffff168273ffffffffffffffffffffffffffffffffffffffff16149050919050565b6000813590506100e58161017c565b92915050565b6000602082840312156100fd57600080fd5b600061010b848285016100d6565b91505092915050565b61011d81610150565b82525050565b60006020820190506101386000830184610114565b92915050565b60006101498261015c565b9050919050565b60008115159050919050565b600073ffffffffffffffffffffffffffffffffffffffff82169050919050565b6101858161013e565b811461019057600080fd5b5056fea26469706673582212206264a01963ed7658e353181b5a45233d0419fb9034d5d5f170ce723c78f3f5bc64736f6c63430008000033",
  "immutableReferences": {},
  "source": "pragma solidity ^0.8.0;\n\ncontract Auth {\n    address private _administrator;\n\n    constructor() {\n        // Make the deployer of the contract the administrator\n        _administrator = msg.sender;\n    }\n\n    function isAdministrator(address user) public view returns (bool) {\n        return user == _administrator;\n    }\n}",
  "sourcePath": "/Users/andrewhuang/Projects/mynft/contracts/access-control/Auth.sol",
  "compiler": {
    "name": "solc",
    "version": "0.8.0+commit.c7dfd78e.Emscripten.clang"
  },
  "schemaVersion": "3.4.2",
  "updatedAt": "2021-07-29T20:04:49.833Z",
  "devdoc": {
    "kind": "dev",
    "methods": {},
    "version": 1
  },
  "userdoc": {
    "kind": "user",
    "methods": {},
    "version": 1
  }
}